:100000000C9463000C948B000C948B000C948B006C
:100010000C948B000C948B000C948B000C948B0034
:100020000C948B000C948B000C948B000C948B0024
:100030000C948B000C948B000C948B000C948B0014
:100040000C94C3010C948B000C9494030C94E20365
:100050000C948B000C948B000C948B000C948B00F4
:100060000C948B000C948B000000000024002700EF
:100070002A0000000000250028002B0000000000DE
:1000800023002600290004040404040404040202DA
:100090000202020203030303030301020408102007
:1000A0004080010204081020010204081020000012
:1000B0000007000201000003040600000000000029
:1000C000000091014E0511241FBECFEFD8E0DEBF26
:1000D000CDBF11E0A0E0B1E0EEEFFDE002C0059081
:1000E0000D92A433B107D9F712E0A4E3B1E001C047
:1000F0001D92A332B107E1F710E0C6ECD0E004C0D6
:100100002297FE010E94F906C23CD107C9F70E945E
:10011000A4050C94FD060C940000EF92FF920F933F
:100120001F930E940B02611571058105910541F431
:100130000E940B02623071058105910508F471C0BF
:100140000E940B029B01AC016093390170933A014C
:1001500080933B0190933C01809134019091350153
:10016000A0913601B0913701281739074A075B077C
:1001700040F420933401309335014093360150937D
:1001800037018091340190913501A0913601B091F1
:10019000370179018A01E81AF90A0A0B1B0BD80109
:1001A000C7018A3F9105A105B105D8F180913801B9
:1001B0008823B9F5209334013093350140933601FB
:1001C000509337018DE391E00E94BF0180916E0151
:1001D00090916F0160E071E00E94A00680916E0135
:1001E00090916F0168E071E00E94A00600916E019D
:1001F00010916F010E940B02AB01BC01C8012AE003
:1002000030E00E947D0680916E0190916F016AE05E
:1002100071E00E94A30665E070E080E090E00E943B
:1002200019028091200161E00E94AD0280912201BB
:1002300061E00E94AD028091200161E00E94EC0229
:100240008091220160E00E94EC028091200160E038
:100250000E94AD028091200160E00E94EC020E94A9
:100260000B027B018C01809120010E9440030197C9
:10027000D1F30E940B02AB01BC014E195F09600B68
:10028000710B81E092E02AE030E00E948C061F9121
:100290000F91FF90EF900895EF92FF920F931F93AD
:1002A0000DE311E081E0E82E82E0F82EC801B701ED
:1002B00020E032EC41E050E00E94920160ED77E0F6
:1002C00080E090E00E941902C8010E94BF01809165
:1002D0006E0190916F0161E171E00E94A3066AE0F6
:1002E00070E080E090E00E941902C80160E040E008
:1002F0000E9490018091220161E00E94AD028091F4
:10030000200161E00E94AD02C70140E855E260E0D3
:1003100070E00E941D041F910F91FF90EF900895CF
:1003200008950895FC0172AB61ABCB01BA01A9013C
:100330000E941D040895CF93DF93EC01662339F0EA
:1003400015C063E070E080E090E00E9419020E9416
:100350000B0229813A814B815C81621B730B840BF8
:10036000950B623371058105910558F30E940B02CC
:1003700069837A838B839C83DF91CF91089560E0BA
:100380000E949B0108951F920F920FB60F921124A5
:100390002F933F938F939F93AF93BF93809174015B
:1003A00090917501A0917601B0917701309178011B
:1003B0000196A11DB11D232F2D5F2D3720F02D5744
:1003C0000196A11DB11D2093780180937401909333
:1003D0007501A0937601B09377018091700190919F
:1003E0007101A0917201B09173010196A11DB11D1F
:1003F0008093700190937101A0937201B093730187
:10040000BF91AF919F918F913F912F910F900FBE10
:100410000F901F9018958FB7F89420917401309128
:10042000750140917601509177018FBFB901CA01E2
:1004300008959B01AC017FB7F89480917001909171
:100440007101A0917201B091730166B5A89B05C0BE
:100450006F3F19F00196A11DB11D7FBFBA2FA92FC3
:10046000982F8827860F911DA11DB11D62E0880F6E
:10047000991FAA1FBB1F6A95D1F7BC012DC0FFB7FA
:10048000F8948091700190917101A0917201B091E6
:100490007301E6B5A89B05C0EF3F19F00196A11DB9
:1004A000B11DFFBFBA2FA92F982F88278E0F911D3E
:1004B000A11DB11DE2E0880F991FAA1FBB1FEA957D
:1004C000D1F7861B970B885E9340C8F221503040CD
:1004D0004040504068517C4F211531054105510580
:1004E00071F60895789484B5826084BD84B5816086
:1004F00084BD85B5826085BD85B5816085BDEEE62C
:10050000F0E0808181608083E1E8F0E0108280810A
:1005100082608083808181608083E0E8F0E0808178
:1005200081608083E1EBF0E0808184608083E0EB98
:10053000F0E0808181608083EAE7F0E08081846080
:1005400080838081826080838081816080838081DC
:10055000806880831092C1000895CF93DF93482F65
:1005600050E0CA0186569F4FFC0134914A575F4FB5
:10057000FA018491882369F190E0880F991FFC01AA
:10058000E859FF4FA591B491FC01EE58FF4FC5917A
:10059000D491662351F42FB7F8948C91932F9095B2
:1005A00089238C93888189230BC0623061F42FB733
:1005B000F8948C91932F909589238C938881832B29
:1005C00088832FBF06C09FB7F8948C91832B8C93A0
:1005D0009FBFDF91CF910895482F50E0CA01825507
:1005E0009F4FFC012491CA0186569F4FFC019491B4
:1005F0004A575F4FFA013491332309F440C0222354
:1006000051F1233071F0243028F42130A1F0223050
:1006100011F514C02630B1F02730C1F02430D9F4E0
:1006200004C0809180008F7703C0809180008F7D0F
:100630008093800010C084B58F7702C084B58F7D11
:1006400084BD09C08091B0008F7703C08091B00055
:100650008F7D8093B000E32FF0E0EE0FFF1FEE5888
:10066000FF4FA591B4912FB7F894662321F48C9194
:100670009095892302C08C91892B8C932FBF08956C
:10068000682F70E0CB0182559F4FFC012491CB0174
:1006900086569F4FFC0144916A577F4FFB0194910E
:1006A000992319F420E030E03CC0222351F123309B
:1006B00071F0243028F42130A1F0223011F514C05B
:1006C0002630B1F02730C1F02430D9F404C0809135
:1006D00080008F7703C0809180008F7D80938000A1
:1006E00010C084B58F7702C084B58F7D84BD09C0EA
:1006F0008091B0008F7703C08091B0008F7D809390
:10070000B000892F90E0880F991F84589F4FFC01FB
:10071000A591B4918C9120E030E0842311F021E088
:1007200030E0C901089508951F920F920FB60F92FD
:1007300011242F933F934F938F939F93EF93FF93A6
:100740008091C00082FD1DC04091C6002091B9017A
:100750003091BA012F5F3F4F2F7330708091BB01F2
:100760009091BC012817390771F0E091B901F0911F
:10077000BA01E758FE4F40833093BA012093B90184
:1007800002C08091C600FF91EF919F918F914F9190
:100790003F912F910F900FBE0F901F901895E091F1
:1007A0000D02F0910E02E05CFF4F8191919120814A
:1007B0003181821B930B8F739070892B11F00E94F3
:1007C000930308951F920F920FB60F9211242F9347
:1007D0003F938F939F93EF93FF932091FD0130916F
:1007E000FE018091FF01909100022817390731F432
:1007F0008091C1008F7D8093C10014C0E091FF0102
:10080000F0910002E354FE4F20818091FF0190910E
:10081000000201968F739070909300028093FF0105
:100820002093C600FF91EF919F918F913F912F915F
:100830000F900FBE0F901F901895AF92BF92DF924E
:10084000EF92FF920F931F93CF93DF93EC017A0106
:100850008B01DD24403081EE580780E0680780E09E
:10086000780711F0DD24D39491E0A92EB12CEC8906
:10087000FD89DD2069F0C50108A002C0880F991F1D
:100880000A94E2F7808360E079E08DE390E005C0B0
:10089000108260E874E88EE190E0A80197010E9460
:1008A000D5062150304040405040569547953795E9
:1008B000279580E12030380720F0DD2011F0DD247D
:1008C000D6CFE889F9893083EA89FB89208319A288
:1008D000EE89FF89408121E030E0C9010C8C02C023
:1008E000880F991F0A94E2F7482B4083EE89FF890D
:1008F0004081C9010D8C02C0880F991F0A94E2F74C
:10090000482B4083EE89FF894081C9010E8C02C0CB
:10091000880F991F0A94E2F7482B4083EE89FF89DC
:1009200080810F8C02C0220F331F0A94E2F72095BA
:1009300028232083DF91CF911F910F91FF90EF909B
:10094000DF90BF90AF900895DC011C96ED91FC9173
:100950001D97E05CFF4F2191319180819181281B8F
:10096000390B2F733070C9010895DC011C96ED918D
:10097000FC911D97E05CFF4F20813181E054F040F5
:10098000DF01AE5BBF4F8D919C91119728173907FE
:1009900019F42FEF3FEF07C08D919C91E80FF91FDD
:1009A0008081282F30E0C9010895DC011C96ED916B
:1009B000FC911D97E05CFF4F20813181E054F040B5
:1009C000DF01AE5BBF4F8D919C91119728173907BE
:1009D00019F42FEF3FEF10C08D919C911197E80F04
:1009E000F91F20818D919C91119701968F739070C2
:1009F00011969C938E9330E0C9010895DC01919685
:100A00008C919197882339F05496ED91FC915597EC
:100A1000808186FFF9CF91961C920895CF93DF9342
:100A2000EC01EE85FF85E05CFF4F20813181E054D1
:100A3000F0402F5F3F4F2F733070DF01AE5BBF4F31
:100A40008D919C91119728173907D1F3E05CFF4FE6
:100A500080819181E054F040E80FF91F6083EE85BA
:100A6000FF85E05CFF4F31832083EE89FF89208181
:100A700081E090E00F8C02C0880F991F0A94E2F782
:100A8000282B208381E089A3EC89FD898081806403
:100A9000808381E090E0DF91CF910895109204026D
:100AA0001092030288EE93E0A0E0B0E0809305028C
:100AB00090930602A0930702B093080288E291E0A7
:100AC000909302028093010289E791E090930E02D5
:100AD00080930D028DEB91E09093100280930F02B2
:100AE00085EC90E0909312028093110284EC90E0E8
:100AF000909314028093130280EC90E0909316027E
:100B00008093150281EC90E0909318028093170275
:100B100082EC90E090931A028093190286EC90E0A8
:100B200090931C0280931B0284E080931D0283E05B
:100B300080931E0287E080931F0285E0809320024D
:100B400081E0809321020895CF93DF930E94720287
:100B50000E944C01CFECD3E00E948D002097E1F37E
:100B60000E94CF03F9CFCF92DF92EF92FF920F93C3
:100B70001F93CF93DF937C016B018A01C0E0D0E02B
:100B80000FC0D6016D916D01D701ED91FC910190DF
:100B9000F081E02DC7010995C80FD91F0150104001
:100BA0000115110571F7CE01DF91CF911F910F91C2
:100BB000FF90EF90DF90CF900895EF92FF920F9308
:100BC0001F938C01DC01ED91FC910190F081E02DEF
:100BD0006DE009957C01D801ED91FC910190F081C7
:100BE000E02DC8016AE009959C012E0D3F1DC90149
:100BF0001F910F91FF90EF900895CF93DF93EC0139
:100C00006115710519F420E030E00FC0DB010D9093
:100C10000020E9F71197A61BB70BE881F981028044
:100C2000F381E02DAD0109959C01C901DF91CF91C0
:100C300008954F925F927F928F929F92AF92BF9250
:100C4000CF92DF92EF92FF920F931F93DF93CF9398
:100C5000CDB7DEB7A1970FB6F894DEBF0FBECDBFFC
:100C60002C01742ECB01223008F42AE019A231E2C3
:100C7000C32ED12CCC0EDD1E822E9924AA24BB2497
:100C8000672D752FA50194010E94D50679018A016F
:100C9000C801B701A50194010E94B606472D461B65
:100CA0000894C108D1084A3014F4405D01C0495C81
:100CB000F6014083E114F1040105110521F07E2CB9
:100CC0005F2DC801DDCFC201B6010E94FD05A196CE
:100CD0000FB6F894DEBF0FBECDBFCF91DF911F914D
:100CE0000F91FF90EF90DF90CF90BF90AF909F90CB
:100CF0008F907F905F904F900895DC012115310512
:100D000041F4ED91FC910190F081E02D642F099563
:100D100008950E9419060895EF92FF920F931F9372
:100D20007C010E947D068C01C7010E94DD059C01AB
:100D3000200F311FC9011F910F91FF90EF9008956F
:100D40000E94FD050895EF92FF920F931F937C017F
:100D50000E94FD058C01C7010E94DD05080F191FC7
:100D6000C8011F910F91FF90EF900895629FD001ED
:100D7000739FF001829FE00DF11D649FE00DF11D56
:100D8000929FF00D839FF00D749FF00D659FF00D05
:100D90009927729FB00DE11DF91F639FB00DE11DF2
:100DA000F91FBD01CF0111240895A1E21A2EAA1B3B
:100DB000BB1BFD010DC0AA1FBB1FEE1FFF1FA2170B
:100DC000B307E407F50720F0A21BB30BE40BF50B08
:100DD000661F771F881F991F1A9469F76095709591
:100DE000809590959B01AC01BD01CF010895EE0F58
:0E0DF000FF1F0590F491E02D0994F894FFCFB9
:100DFE00564D4450455F31007C005F564D44504582
:100E0E0000564D4450565F317C5F564D445056004F
:100E1E0002000300000000000E05B305A404D50473
:040E2E00B504FE0405
:00000001FF
