:100000000C9463000C948B000C948B000C948B006C
:100010000C948B000C948B000C948B000C948B0034
:100020000C948B000C948B000C948B000C948B0024
:100030000C948B000C948B000C948B000C948B0014
:100040000C94BB040C948B000C9488060C94D6067C
:100050000C948B000C948B000C948B000C948B00F4
:100060000C948B000C948B000000000024002700EF
:100070002A0000000000250028002B0000000000DE
:1000800023002600290004040404040404040202DA
:100090000202020203030303030301020408102007
:1000A0004080010204081020010204081020000012
:1000B0000007000201000003040600000000000029
:1000C00000008D00420811241FBECFEFD8E0DEBF34
:1000D000CDBF11E0A0E0B1E0EEEAF4E102C005908E
:1000E0000D92AE37B107D9F712E0AEE7B1E001C02B
:1000F0001D92AA35B107E1F710E0C6ECD0E004C0CC
:100100002297FE010E94510AC23CD107C9F70E9402
:1001100098080C94550A0C940000CF92EF920F931C
:100120008EE791E06CE04BE02AE009E058E0E52E34
:1001300037E0C32E0E946F0483E991E065E043E05D
:1001400024E00E94B5020F91EF90CF900895CF93D5
:10015000DF9388E392E060E071E00E94E709C0E08D
:10016000D0E086EA91E0BE0140E00E94AF04219613
:1001700082E0C030D807A9F71092A2011092A10125
:1001800088E392E060E171E00E94E709DF91CF919E
:100190000895DF92EF92FF920F931F938C01462FE9
:1001A000D72E66EAE62E61E0F62EC701B8010E945E
:1001B000AF040F5F1F4FC701B8014D2D0E94AF0460
:1001C0001F910F91FF90EF90DF900895DF92EF92D3
:1001D000FF920F931F938C0176EAE72E71E0F72EC2
:1001E000C701B8010E94A804D82E0F5F1F4FC70196
:1001F000B8010E94A804382F20E02D0D311DC9013F
:100200001F910F91FF90EF90DF9008958EE791E09E
:100210000E94B1038EE791E060E040E00E9482031B
:100220008091A5018823D9F08EE791E06FE171E01C
:100230000E94E40960919B0170919C018EE791E01E
:100240004AE050E00E94D1098EE791E060E041E091
:100250000E9482038EE791E067E271E04EC08091D8
:10026000A3019091A40101969093A4018093A3010E
:100270008C52914020F01092A4011092A3018EE7BD
:1002800091E060E371E00E94E4098EE791E060E0B4
:1002900041E00E9482032091A3013091A401C90191
:1002A00064E670E00E94190A281B390B21303105E1
:1002B000B1F02130310520F02230310589F520C020
:1002C0006091A1017091A2018EE791E04AE050E0B7
:1002D0000E9480098EE791E06EE371E00EC06091AC
:1002E0009F017091A0018EE791E04AE050E00E94EA
:1002F000D1098EE791E065E471E00E94E409089578
:1003000060919D0170919E018EE791E04AE050E07E
:100310000E94D1098EE791E06EE471E00E94E40949
:1003200008950F931F9388E392E00E949807892B0A
:1003300079F088E392E00E94C9078436910541F480
:100340000E94A70088E392E067E571E00E94E70958
:100350000E94060183E991E00E946102809193016D
:100360009091940190939C0180939B01009199013D
:1003700010919A0180915C010E94340608171907B8
:1003800009F44CC083E991E00E945C0280915C0119
:100390000E94340690939A0180939901019791F4F9
:1003A0006091A1017091A2016F5F7F4F7093A201D4
:1003B0006093A10180E090E00E94C90081E08093F9
:1003C000A5012CC01092A50160919B0170919C0128
:1003D00080919F019091A001680F791F7093A001F7
:1003E00060939F018091950120919D0130919E0124
:1003F000882319F0C901019601C0C90190939E019B
:1004000080939D0182E090E00E94C90060919D016F
:1004100070919E0184E090E00E94C90064E670E063
:1004200080E090E00E9403051F910F9108950F93C3
:100430001F9380915C0162E00E94A10580E090E042
:100440000E94E6009093A2018093A10182E090E0D7
:100450000E94E6009093A00180939F0184E090E0C9
:100460000E94E60090939E0180939D010EE711E0AB
:10047000C80160E142E020E00E94B903C80160E3E6
:1004800071E00E94E409C80160E041E00E9482033B
:100490006091A1017091A201C8014AE050E00E9460
:1004A000800988E392E040E855E260E070E00E9455
:1004B00011071F910F910895FC0112821182108281
:1004C0000895CF93DF93EC018B810E943406892B32
:1004D00059F48881998101969983888362E370E059
:1004E00080E090E00E9403058C810E943406892BF5
:1004F00091F4888199810197998388831816190648
:1005000024F081E090E09983888362E370E080E0EA
:1005100090E00E9403058D810E943406892B51F4DE
:100520008A8191E089278A8362E370E080E090E02D
:100530000E940305DF91CF9108950F931F938C01C3
:10054000862FF80163834483258362E00E94A1051E
:10055000F801848162E00E94A105F801858162E0D2
:100560000E94A1051F910F9108950E949D02089578
:100570000F931F938C01FC01868160E00E94E005CF
:1005800081E090E00E945C05F801868161E00E94B4
:10059000E00581E090E00E945C05F801868160E062
:1005A0000E94E00584E690E00E945C051F910F9197
:1005B0000895CF92DF92EF92FF920F931F93CF9304
:1005C000DF93D82EC92E282F392FC9018C01C0E006
:1005D000D0E0E62EFF24F801878161E00E94A105AA
:1005E000B7010C2E02C0759567950A94E2F7617009
:1005F000F80187810E94E00521960F5F1F4FC830E8
:10060000D10549F78D2D9C2D0E94B802DF91CF9125
:100610001F910F91FF90EF90DF90CF900895CF92B0
:10062000DF92EF92FF920F931F93CF93DF93D82E19
:10063000C92E282F392FC9018C01C0E0D0E0E62E49
:10064000FF24F801878161E00E94A105B7010C2E0B
:1006500002C0759567950A94E2F76170F801878189
:100660000E94E00521960F5F1F4FC430D10549F766
:100670008D2D9C2D0E94B802DF91CF911F910F917B
:10068000FF90EF90DF90CF9008951F93CF93DF936B
:10069000EC01162F8C81642F0E94E0058D818F3F25
:1006A00019F060E00E94E0058F8584FF05C0CE014F
:1006B000612F0E94D9020EC0612F70E084E0759511
:1006C00067958A95E1F7CE010E940F03CE01612F55
:1006D0000E940F03DF91CF911F91089541E00E9486
:1006E000450381E090E0089540E00E9445030895AD
:1006F000FC016089862F8460808B6C60CF010E9432
:1007000074030895DF93CF93CDB7DEB728970FB664
:10071000F894DEBF0FBECDBF9C01FE013196A6E668
:10072000B1E088E00D9001928150E1F7F9018389F1
:10073000481710F0482F4150E42FF0E0EE0FFF1F54
:10074000EC0FFD1F8181680F6068C9010E9474036E
:1007500028960FB6F894DEBF0FBECDBFCF91DF91C4
:10076000089561E00E94740380ED97E00E945C05AB
:100770000895CF93DF93EC01423018F08F858860A5
:100780008F874B8B1C8A222329F0413019F48F85E7
:1007900084608F8780E593EC0E945C058C8160E02B
:1007A0000E94E0058E8160E00E94E0058D818F3F10
:1007B00019F060E00E94E0056F8564FD1DC0CE0168
:1007C00063E00E940F0384E991E10E945C05CE0181
:1007D00063E00E940F0384E991E10E945C05CE0171
:1007E00063E00E940F0386E990E00E945C05CE0161
:1007F00062E00E940F0316C06062CE010E94740383
:1008000084E991E10E945C056F856062CE010E94DF
:10081000740386E990E00E945C056F856062CE01FA
:100820000E9474036F856062CE010E94740384E0AD
:10083000888BCE010E947803CE010E94B10382E032
:10084000898BCE0166E00E947403DF91CF910895F9
:100850006F927F928F92AF92CF92EF920F931F93EE
:10086000DF93CF93CDB7DEB73C01162F842FF30172
:10087000448325830683E782C086A18682869D8580
:1008800093879E8594879F8595879889968761E051
:100890000E94A105F30185818F3F19F061E00E945C
:1008A000A105F301868161E00E94A105112319F0E1
:1008B000F301178603C080E1F3018787C30160E17C
:1008C00041E020E00E94B903CF91DF911F910F9189
:1008D000EF90CF90AF908F907F906F9008958F9210
:1008E000AF92CF92EF920F931F93CF93DF93DC01E0
:1008F000362F542F722F102FAE2C8C2C13961C9247
:100900001E92129782E691E011969C938E9300D0EE
:1009100000D0EDB7FEB73196CDB7DEB719821182A0
:1009200012821382CD0161E0432F2FEF052FE72EB6
:10093000C12E0E9428040F900F900F900F90DF910E
:10094000CF911F910F91EF90CF90AF908F9008951E
:10095000F999FECF72BD61BDF89A80B50895F999F5
:10096000FECF1FBA72BD61BD40BD0FB6F894FA9AB2
:10097000F99A0FBE08951F920F920FB60F9211248D
:100980002F933F938F939F93AF93BF938091AB012E
:100990009091AC01A091AD01B091AE013091AF0149
:1009A0000196A11DB11D232F2D5F2D3720F02D574E
:1009B0000196A11DB11D2093AF018093AB019093CF
:1009C000AC01A093AD01B093AE018091A7019091CD
:1009D000A801A091A901B091AA010196A11DB11D84
:1009E0008093A7019093A801A093A901B093AA01B5
:1009F000BF91AF919F918F913F912F910F900FBE1B
:100A00000F901F9018959B01AC017FB7F8948091CF
:100A1000A7019091A801A091A901B091AA0166B582
:100A2000A89B05C06F3F19F00196A11DB11D7FBFA6
:100A3000BA2FA92F982F8827860F911DA11DB11DB0
:100A400062E0880F991FAA1FBB1F6A95D1F7BC01EE
:100A50002DC0FFB7F8948091A7019091A801A091B3
:100A6000A901B091AA01E6B5A89B05C0EF3F19F016
:100A70000196A11DB11DFFBFBA2FA92F982F88275E
:100A80008E0F911DA11DB11DE2E0880F991FAA1FB5
:100A9000BB1FEA95D1F7861B970B885E9340C8F27F
:100AA000215030404040504068517C4F2115310565
:100AB0004105510571F60895019739F0880F991F86
:100AC000880F991F02970197F1F70895789484B5DC
:100AD000826084BD84B5816084BD85B5826085BD3A
:100AE00085B5816085BDEEE6F0E080818160808320
:100AF000E1E8F0E010828081826080838081816003
:100B00008083E0E8F0E0808181608083E1EBF0E0C9
:100B1000808184608083E0EBF0E08081816080836D
:100B2000EAE7F0E080818460808380818260808356
:100B30008081816080838081806880831092C10081
:100B40000895CF93DF93482F50E0CA0186569F4FF8
:100B5000FC0134914A575F4FFA018491882369F16F
:100B600090E0880F991FFC01E859FF4FA591B491BF
:100B7000FC01EE58FF4FC591D491662351F42FB775
:100B8000F8948C91932F909589238C938881892355
:100B90000BC0623061F42FB7F8948C91932F90952D
:100BA00089238C938881832B88832FBF06C09FB7AE
:100BB000F8948C91832B8C939FBFDF91CF910895F4
:100BC000482F50E0CA0182559F4FFC012491CA0171
:100BD00086569F4FFC0194914A575F4FFA0134911A
:100BE000332309F440C0222351F1233071F0243023
:100BF00028F42130A1F0223011F514C02630B1F0D4
:100C00002730C1F02430D9F404C0809180008F7760
:100C100003C0809180008F7D8093800010C084B5D8
:100C20008F7702C084B58F7D84BD09C08091B000EC
:100C30008F7703C08091B0008F7D8093B000E32F49
:100C4000F0E0EE0FFF1FEE58FF4FA591B4912FB7C4
:100C5000F894662321F48C919095892302C08C919D
:100C6000892B8C932FBF0895682F70E0CB0182559C
:100C70009F4FFC012491CB0186569F4FFC0144916C
:100C80006A577F4FFB019491992319F420E030E0DB
:100C90003CC0222351F1233071F0243028F421305C
:100CA000A1F0223011F514C02630B1F02730C1F088
:100CB0002430D9F404C0809180008F7703C08091E4
:100CC00080008F7D8093800010C084B58F7702C034
:100CD00084B58F7D84BD09C08091B0008F7703C03B
:100CE0008091B0008F7D8093B000892F90E0880FB5
:100CF000991F84589F4FFC01A591B4918C9120E0DD
:100D000030E0842311F021E030E0C9010895089516
:100D10001F920F920FB60F9211242F933F934F9370
:100D20008F939F93EF93FF938091C00082FD1DC02E
:100D30004091C6002091F0013091F1012F5F3F4FAB
:100D40002F7330708091F2019091F30128173907C9
:100D500071F0E091F001F091F101E055FE4F408318
:100D60003093F1012093F00102C08091C600FF9101
:100D7000EF919F918F914F913F912F910F900FBEC7
:100D80000F901F901895E0914402F0914502E05CAD
:100D9000FF4F8191919120813181821B930B8F7341
:100DA0009070892B11F00E94870608951F920F9270
:100DB0000FB60F9211242F933F938F939F93EF932E
:100DC000FF93209134023091350280913602909148
:100DD00037022817390731F48091C1008F7D809345
:100DE000C10014C0E0913602F0913702EC50FE4F82
:100DF0002081809136029091370201968F73907016
:100E000090933702809336022093C600FF91EF91B2
:100E10009F918F913F912F910F900FBE0F901F9038
:100E20001895AF92BF92DF92EF92FF920F931F93AC
:100E3000CF93DF93EC017A018B01DD24403081EE0A
:100E4000580780E0680780E0780711F0DD24D3942C
:100E500091E0A92EB12CEC89FD89DD2069F0C50156
:100E600008A002C0880F991F0A94E2F7808360E00F
:100E700079E08DE390E005C0108260E874E88EE1CF
:100E800090E0A80197010E942D0A21503040404077
:100E90005040569547953795279580E12030380783
:100EA00020F0DD2011F0DD24D6CFE889F9893083E8
:100EB000EA89FB89208319A2EE89FF89408121E01C
:100EC00030E0C9010C8C02C0880F991F0A94E2F728
:100ED000482B4083EE89FF894081C9010D8C02C0F7
:100EE000880F991F0A94E2F7482B4083EE89FF8907
:100EF0004081C9010E8C02C0880F991F0A94E2F745
:100F0000482B4083EE89FF8980810F8C02C0220F1D
:100F1000331F0A94E2F7209528232083DF91CF9195
:100F20001F910F91FF90EF90DF90BF90AF900895C9
:100F3000DC011C96ED91FC911D97E05CFF4F219127
:100F4000319180819181281B390B2F733070C90139
:100F50000895DC011C96ED91FC911D97E05CFF4F1C
:100F600020813181E054F040DF01AE5BBF4F8D91B5
:100F70009C9111972817390719F42FEF3FEF07C0FD
:100F80008D919C91E80FF91F8081282F30E0C901D5
:100F90000895DC011C96ED91FC911D97E05CFF4FDC
:100FA00020813181E054F040DF01AE5BBF4F8D9175
:100FB0009C9111972817390719F42FEF3FEF10C0B4
:100FC0008D919C911197E80FF91F20818D919C9133
:100FD000119701968F73907011969C938E9330E0C9
:100FE000C9010895DC0191968C919197882339F07D
:100FF0005496ED91FC915597808186FFF9CF91969B
:101000001C920895CF93DF93EC01EE85FF85E05CA1
:10101000FF4F20813181E054F0402F5F3F4F2F730D
:101020003070DF01AE5BBF4F8D919C9111972817F7
:101030003907D1F3E05CFF4F80819181E054F040AB
:10104000E80FF91F6083EE85FF85E05CFF4F318379
:101050002083EE89FF89208181E090E00F8C02C01F
:10106000880F991F0A94E2F7282B208381E089A337
:10107000EC89FD8980818064808381E090E0DF914C
:10108000CF91089510923B0210923A0288EE93E0BD
:10109000A0E0B0E080933C0290933D02A0933E021A
:1010A000B0933F0282E791E0909339028093380237
:1010B00080EB91E0909345028093440284EF91E0AD
:1010C000909347028093460285EC90E0909349020A
:1010D0008093480284EC90E090934B0280934A0204
:1010E00080EC90E090934D0280934C0281EC90E074
:1010F00090934F0280934E0282EC90E090935102C5
:101100008093500286EC90E09093530280935202B9
:1011100084E08093540283E08093550287E08093BB
:10112000560285E08093570281E08093580208952B
:10113000CF93DF930E9466050E941702C3ECD6E0AE
:101140000E9491012097E1F30E94C306F9CFCF924C
:10115000DF92EF92FF920F931F93CF93DF937C0167
:101160006B018A01C0E0D0E00FC0D6016D916D0126
:10117000D701ED91FC910190F081E02DC701099517
:10118000C80FD91F015010400115110571F7CE018C
:10119000DF91CF911F910F91FF90EF90DF90CF9053
:1011A0000895EF92FF920F931F938C01DC01ED9154
:1011B000FC910190F081E02D6DE009957C01D80152
:1011C000ED91FC910190F081E02DC8016AE0099554
:1011D0009C012E0D3F1DC9011F910F91FF90EF90B3
:1011E0000895CF93DF93EC016115710519F420E0A8
:1011F00030E00FC0DB010D900020E9F71197A61B2E
:10120000B70BE881F9810280F381E02DAD010995EA
:101210009C01C901DF91CF9108954F925F927F9217
:101220008F929F92AF92BF92CF92DF92EF92FF92F6
:101230000F931F93DF93CF93CDB7DEB7A1970FB670
:10124000F894DEBF0FBECDBF2C01742ECB0122302F
:1012500008F42AE019A231E2C32ED12CCC0EDD1EF7
:10126000822E9924AA24BB24672D752FA5019401F1
:101270000E942D0A79018A01C801B701A5019401D4
:101280000E94FA09472D461B0894C108D1084A302C
:1012900014F4405D01C0495CF6014083E114F1049F
:1012A0000105110521F07E2C5F2DC801DDCFC201A3
:1012B000B6010E94F108A1960FB6F894DEBF0FBEEA
:1012C000CDBFCF91DF911F910F91FF90EF90DF90F5
:1012D000CF90BF90AF909F908F907F905F904F90F6
:1012E0000895DC012115310541F4ED91FC91019047
:1012F000F081E02D642F099508950E940D0908954D
:10130000EF92FF920F931F939A017B0100E010E090
:10131000B801A7010E9471091F910F91FF90EF90F2
:101320000895CF92DF92EF92FF920F931F93CF9386
:10133000DF93EC016A017B012115310541F4E8815D
:10134000F9810190F081E02D642F09951FC02A30AA
:101350003105D1F477FF17C0E881F9810190F08160
:10136000E02D6DE209958C0144275527BA014C19EF
:101370005D096E097F09CE012AE00E940D099801DE
:10138000280F391F04C02AE00E940D099C01C901E1
:10139000DF91CF911F910F91FF90EF90DF90CF9051
:1013A0000895EF92FF920F931F937B019A010027FC
:1013B000F7FC0095102FB801A7010E9491091F9119
:1013C0000F91FF90EF9008950E94F1080895EF9219
:1013D000FF920F931F937C010E94F1088C01C701BB
:1013E0000E94D108080F191FC8011F910F91FF908B
:1013F000EF900895629FD001739FF001829FE00DEE
:10140000F11D649FE00DF11D929FF00D839FF00D83
:10141000749FF00D659FF00D9927729FB00DE11D2F
:10142000F91F639FB00DE11DF91FBD01CF0111240C
:101430000895AA1BBB1B51E107C0AA1FBB1FA6171B
:10144000B70710F0A61BB70B881F991F5A95A9F76D
:1014500080959095BC01CD010895A1E21A2EAA1B9A
:10146000BB1BFD010DC0AA1FBB1FEE1FFF1FA21754
:10147000B307E407F50720F0A21BB30BE40BF50B51
:10148000661F771F881F991F1A9469F760957095DA
:10149000809590959B01AC01BD01CF010895EE0FA1
:0E14A000FF1F0590F491E02D0994F894FFCF02
:1014AE0064656C6574696E6720454550524F4D00FA
:1014BE00454550524F4D2064656C65746564004916
:1014CE002074616B652000626F74746C65732E00FE
:1014DE0046726964676520636C6F7365640020747F
:1014EE00696D65730020426F74746C6573002072B1
:1014FE006566696C6C7300646F6E650002000000B7
:10150E0000006E03A7080000400014005400000005
:0E151E0000000208A7089807C907A907F207EE
:00000001FF
